:100000000C9493000C94B0000C94B0000C94B000CD
:100010000C94B0000C9421010C94B0000C94B0002E
:100020000C94B0000C94B0000C94B0000C94B00090
:100030000C94B0000C94B0000C94B0000C94B00080
:100040000C94B0000C94B0000C94B0000C94B00070
:100050000C94B0000C94B0000C94B0000C94B00060
:100060000C94B0000C94B00007634236B79BD8A73D
:100070001A39685618AEBAAB558C1D3CB7CC5763CD
:10008000BD6DEDFD753EF6177231BF000000803F7B
:1000900008000000BE922449123EABAAAA2ABECD97
:1000A000CCCC4C3E00000080BEABAAAAAA3E000009
:1000B0000000BF000000803F000000000008417801
:1000C000D3BB4387D1133D190E3CC3BD4282AD2B38
:1000D0003E68EC8276BED98FE1A93E4C80EFFFBE30
:1000E00001C4FF7F3F00000000004E414E494E49D1
:1000F0005459494E46CDCCCC3D0AD7233C17B7D1F5
:100100003877CC2B329595E6241FB14F0A0000209A
:10011000410000C84200401C4620BCBE4CCA1B0E19
:100120005AAEC59D740011241FBECFEFD8E0DEBFCC
:10013000CDBF11E0A0E0B1E0E0E5F1E102C0059043
:100140000D92A034B107D9F721E0A0E4B1E001C0DD
:100150001D92A735B207E1F70E949C020C94A608F5
:100160000C9400009093C5008093C40088E18093B4
:10017000C1008EE08093C2000895E0ECF0E0908131
:1001800095FFFDCF8093C6000895E0ECF0E08081FC
:100190008823ECF78091C6000895CF93DF93EC019C
:1001A0008881882331F021960E94BD0089918111B8
:1001B000FBCFDF91CF91089585B940984198429A3D
:1001C00083ED90E30197F1F700C000004298089595
:1001D00088E390E00E94DC008EE090E00E94DC006A
:1001E00086E090E00E94DC0081E090E00E94DC006C
:1001F000089585B9409A4198429A83ED90E301971A
:10020000F1F700C0000042980895CF93DF93EC010E
:100210008881882331F021960E94F900899181110B
:10022000FBCFDF91CF91089581E00E94DC0083EF46
:1002300091E00197F1F700C0000080E80E94DC0027
:1002400008951F920F920FB60F9211242F933F9390
:100250004F935F936F937F938F939F93AF93BF93CE
:10026000EF93FF934A9B1AC098B188E0892788B919
:1002700020E030E040E85FE360914D0170914E0175
:1002800080914F01909150010E94F50260934D01C1
:1002900070934E0180934F019093500120E030E025
:1002A00040E752E460914D0170914E0180914F0101
:1002B000909150010E946103609345017093460143
:1002C0008093470190934801FF91EF91BF91AF91C7
:1002D0009F918F917F916F915F914F913F912F915E
:1002E0000F900FBE0F901F90189584E080936800C8
:1002F0008CE080936D00789408959B012150310922
:100300001216130684F4FC01E60FF71FDC0180E0EF
:1003100090E04C9152915D934083019621503109B8
:1003200082179307B4F30895CF92DF92EF92FF9272
:100330000F931F93CF93DF936B018A01009799F07E
:10034000EB01E0E0F0E00F2EFAE0EF2EF12CF02DC3
:100350003196B7010E94B206805D8993862F972F50
:100360000097B1F702C0E0E0F0E0E017F1075CF4BD
:10037000EC0DFD1D9601200F311F80E38193E217E4
:10038000F307E1F701C08F01B801C6010E947D01AA
:10039000E601C00FD11F1882C801DF91CF911F91D4
:1003A0000F91FF90EF90DF90CF9008952F923F92A2
:1003B0004F925F926F927F928F929F92AF92BF9275
:1003C000CF92DF92EF92FF920F931F93CF93DF9321
:1003D0004B015C018A01E9010E94D3036B017C019E
:1003E00040E050E0B801C6010E9494011C01209732
:1003F00099F1F801E80FF91F8EE28083BE010D2EFE
:10040000000C880B990B0E940B049B01AC0160E06F
:1004100070E080E291E40E9409052B013C01B601E5
:10042000DD0C880B990B0E940B049B01AC01C501EC
:10043000B4010E94F4022FEF221A320A020D131D9A
:10044000A30192010E949C040E94D303DC01CB0112
:10045000AE01B8010E949401DF91CF911F910F91DD
:10046000FF90EF90DF90CF90BF90AF909F908F90D4
:100470007F906F905F904F903F902F9008958F9254
:100480009F92AF92BF92CF92DF92EF92FF92CF9363
:10049000DF9349015A012FE832EC45E75DE30E9402
:1004A000610326E636E646E650E40E949C0420E01E
:1004B00030E0A9010E94F5026B017C0123E030E0ED
:1004C00040E451E00E94D601C0E4D1E088810E945E
:1004D000F90089810E94F9008A810E94F900A50132
:1004E0009401C701B6010E94970418160CF4449AAF
:1004F000DF91CF91FF90EF90DF90CF90BF90AF90C2
:100500009F908F90089580E80E94DC0080E091E049
:100510000E94050180EC0E94DC008BE091E00E94CB
:10052000050187EC0E94DC008BE191E00E94CD0088
:100530008DE00E94BD0008958FEF84B987B90E94B5
:1005400075010E94E8008CE090E00E94B2000E94D9
:1005500083020DE411E0C9E4D1E00E94C5007E01F0
:1005600088830E94BD0089910E94F900F701808173
:100570008D30A9F50E94140188E391E00E940501E5
:100580008CE80E94DC0086E191E00E94050189E48C
:1005900091E00E94DA0660935101709352018093BA
:1005A00053019093540188E80E94DC00209151018E
:1005B0003091520140915301509154016091450195
:1005C0007091460180914701909148010E943F023D
:1005D00087EA91E60197F1F700C00000E4CFC01769
:1005E000D10709F0BACFB7CF5058BB27AA270E942E
:1005F0000C030C945D040E944F0438F00E945604D2
:1006000020F039F49F3F19F426F40C944C040EF4B6
:10061000E095E7FB0C944604E92F0E946E0458F322
:10062000BA17620773078407950720F079F4A6F5D7
:100630000C9490040EF4E0950B2EBA2FA02D0B0114
:10064000B90190010C01CA01A0011124FF27591B17
:1006500099F0593F50F4503E68F11A16F040A22F1D
:10066000232F342F4427585FF3CF4695379527958E
:10067000A795F0405395C9F77EF41F16BA0B620B8D
:10068000730B840BBAF09150A1F0FF0FBB1F661FD4
:10069000771F881FC2F70EC0BA0F621F731F841F17
:1006A00048F4879577956795B795F7959E3F08F03D
:1006B000B0CF9395880F08F09927EE0F97958795FF
:1006C00008950E9475030C945D040E94560458F02E
:1006D0000E944F0440F029F45F3F29F00C94460437
:1006E00051110C9491040C944C040E946E0468F314
:1006F0009923B1F3552391F3951B550BBB27AA27DB
:1007000062177307840738F09F5F5F4F220F331F14
:10071000441FAA1FA9F335D00E2E3AF0E0E832D0DC
:1007200091505040E695001CCAF72BD0FE2F29D0DF
:10073000660F771F881FBB1F261737074807AB07B1
:10074000B0E809F0BB0B802DBF01FF2793585F4F26
:100750003AF09E3F510578F00C9446040C949104B5
:100760005F3FE4F3983ED4F3869577956795B79508
:10077000F7959F5FC9F7880F911D9695879597F913
:100780000895E1E0660F771F881FBB1F621773078C
:100790008407BA0720F0621B730B840BBA0BEE1FA1
:1007A00088F7E09508950E94DA036894B1110C94DB
:1007B000910408950E94760488F09F5798F0B92F0D
:1007C0009927B751B0F0E1F0660F771F881F991F86
:1007D0001AF0BA95C9F714C0B13091F00E94900494
:1007E000B1E008950C949004672F782F8827B85FA4
:1007F00039F0B93FCCF3869577956795B395D9F7DE
:100800003EF490958095709561957F4F8F4F9F4FE7
:100810000895E89409C097FB3EF4909580957095F3
:1008200061957F4F8F4F9F4F9923A9F0F92F96E93C
:10083000BB279395F695879577956795B795F111B1
:10084000F8CFFAF4BB0F11F460FF1BC06F5F7F4F4E
:100850008F4F9F4F16C0882311F096E911C0772360
:1008600021F09EE8872F762F05C0662371F096E869
:10087000862F70E060E02AF09A95660F771F881F38
:10088000DAF7880F9695879597F9089597F99F67F6
:1008900080E870E060E008959FEF80EC0895002408
:1008A0000A941616170618060906089500240A94D5
:1008B00012161306140605060895092E0394000C5B
:1008C00011F4882352F0BB0F40F4BF2B11F460FFEA
:1008D00004C06F5F7F4F8F4F9F4F089557FD905813
:1008E000440F551F59F05F3F71F04795880F97FBF4
:1008F000991F61F09F3F79F08795089512161306AE
:100900001406551FF2CF4695F1DF08C016161706DC
:100910001806991FF1CF8695710561050894089511
:10092000E894BB2766277727CB0197F908950E94A3
:10093000930508F48FEF08950E94AF040C945D04B2
:100940000E944F0438F00E94560420F0952311F0C5
:100950000C9446040C944C0411240C9491040E94B1
:100960006E0470F3959FC1F3950F50E0551F629F81
:10097000F001729FBB27F00DB11D639FAA27F00DF8
:10098000B11DAA1F649F6627B00DA11D661F829F1F
:100990002227B00DA11D621F739FB00DA11D621F04
:1009A000839FA00D611D221F749F3327A00D611D21
:1009B000231F849F600D211D822F762F6A2F112403
:1009C0009F5750409AF0F1F088234AF0EE0FFF1F36
:1009D000BB1F661F771F881F91505040A9F79E3F8D
:1009E000510580F00C9446040C9491045F3FE4F3AD
:1009F000983ED4F3869577956795B795F795E795E3
:100A00009F5FC1F7FE2B880F911D9695879597F9EB
:100A10000895FA01EE0FFF1F309621053105A1F16F
:100A20006115710561F48038BFE39B0749F1689453
:100A30009038810561F08038BFEF9B0741F0992322
:100A40004AF5FF3FE1053105210519F1E8940894C5
:100A5000E795D901AA2329F4AB2FBE2FF85FD0F375
:100A600010C0FF5F70F4A695E0F7F73950F019F069
:100A7000FF3A38F49F779F930DD00F9007FC905862
:100A8000089546F00C944C0460E070E080E89FE329
:100A900008954FE79F775F934F933F932F930E9463
:100AA00028062F913F914F915F910E949C040C94D6
:100AB000610529F416F00C9446040C9490040C94EF
:100AC0004C040E947604A8F39638A0F707F80F921A
:100AD000E8942BE33AEA48EB5FE70E94B2040F92F6
:100AE0000F920F924DB75EB70F920E947006E8E624
:100AF000F0E00E94B7054F915F91EF91FF91E5956E
:100B0000EE1FFF1F49F0FE57E0684427EE0F441F19
:100B1000FA95E1F74195550B0E94EA050F9007FE03
:100B20000C94DE050895990F0008550FAA0BE0E814
:100B3000FEEF16161706E807F907C0F0121613069F
:100B4000E407F50798F0621B730B840B950B39F4DF
:100B50000A2661F0232B242B252B21F408950A2645
:100B600009F4A140A6958FEF811D811D0895DF93A3
:100B7000CF931F930F93FF92EF92DF927B018C0133
:100B8000689406C0DA2EEF010E94AF04FE01E894DB
:100B9000A5912591359145915591A6F3EF010E94BC
:100BA0000C03FE019701A801DA9469F7DF90EF903A
:100BB000FF900F911F91CF91DF9108959B01AC01A0
:100BC00060E070E080E89FE30C9461030C944604BD
:100BD0000C94A4060E947604D8F39923C9F3940FC9
:100BE000511DA3F39150504094F059F0882332F0F6
:100BF000660F771F881F91505040C1F79E3F5105E7
:100C00002CF7880F911D9695879597F908955F3F6A
:100C1000ACF0983E9CF0BB27869577956795B79585
:100C200008F4B1609395C1F7BB0F58F711F460FF5A
:100C3000E8CF6F5F7F4F8F4F9F4FE3CF0C949104AE
:100C400016F00C94A4060C944C0468940C9446047E
:100C50000E947604A8F39923C1F3AEF3DF93CF93F8
:100C60001F930F93FF92C92FDD2788232AF0219726
:100C7000660F771F881FDAF720E030E040E85FEB6F
:100C80009FE3883920F0803E38F021968F770E94CC
:100C9000F502E0E9F0E004C00E94F502EDEBF0E0BF
:100CA0000E94B7058B01BE01EC01FB2E6F57710945
:100CB0007595771F880B990B0E940B0428E132E78A
:100CC00041E35FE30E94AF04AF2D9801AE01FF90B6
:100CD0000F911F91CF91DF910E940C030C945D0442
:100CE000FA01DC01AA0FBB1F9B01AC01BF5728F41E
:100CF000222733274427507820C0B75190F4AB2FD8
:100D00000024469537952795011CA395D2F3002022
:100D100071F0220F331F441FB395DAF30ED00C94F9
:100D2000F40261307105A0E88A07B94630F49B01EE
:100D3000AC016627772788279078309621F02083AA
:100D400031834283538308959F3F31F0915020F4C3
:100D5000879577956795B795880F911D9695879597
:100D600097F9089597FB072E16F4009407D077FDA6
:100D700009D00E94C60607FC05D03EF490958195E7
:100D80009F4F0895709561957F4F0895AA1BBB1BD7
:100D900051E107C0AA1FBB1FA617B70710F0A61B7B
:100DA000B70B881F991F5A95A9F780959095BC019C
:100DB000CD010895662777270C94DE06A0E0B0E009
:100DC000E4EEF6E00C946608EC016B016115710528
:100DD00019F0FB01918380837E01FFEFEF1AFF0A78
:100DE0000881802F90E00E942C08892B11F0E701E8
:100DF000F3CF0D3239F47E0182E0E80EF11C098157
:100E000011E008C00B3229F47E0192E0E90EF11CDA
:100E1000098110E0E701219743E050E062EF70E0C4
:100E2000CE010E943508892BC1F4239645E050E09D
:100E30006DEE70E0CE010E943508892B09F42596ED
:100E4000C114D10419F0F601D183C0831111F6C089
:100E500060E070E080E89FE7FAC043E050E06AEEAF
:100E600070E0CE010E943508892B59F4C114D104D9
:100E700009F4E9C0F2E0EF0EF11CF601F182E08224
:100E8000E2C020E030E0A901C0E0D0E0F70180ED51
:100E9000A82EA00E89E08A1530F1912F9260B92E0C
:100EA000812F887012FF04C0811124C0219622C0B6
:100EB00081112197A5E0B0E00E945508DC01CB012B
:100EC000880F991FAA1FBB1F9C01AD012A0D311D60
:100ED000411D511D283989E93807480789E158071C
:100EE00048F0166006C09EEFA9120AC013FD40C06C
:100EF0001860B12E8FEFE81AF80A00811B2DC6CFBB
:100F0000802F8F7D8534A1F580818D3211F41061A1
:100F100006C08B3221F0319661E070E004C081811F
:100F2000329662E070E080538A3018F0E61BF70BCF
:100F30001FC060E070E060389CE079075CF4DB0182
:100F4000AA0FBB1FAA0FBB1F6A0F7B1F660F771F5D
:100F5000680F711D3196DF0111978C9180538A3093
:100F600050F314FF03C0719561957109C60FD71F27
:100F700011FF08C0C114D10429F0CF010197F60177
:100F800091838083CA01B9010E940904212F237033
:100F9000233019F04B015C0106C04B015C01B7FA2C
:100FA000B094B7F8B09420E030E0A901C501B401D5
:100FB0000E944D08882309F43EC0D7FF06C0D19592
:100FC000C195D10909E011E002C001E211E0680118
:100FD000F8E1CF1AD10890E2E92EF12CCE15DF0509
:100FE00074F0F8012591359145915491C501B401F2
:100FF0000E949C044B015C01CE19DF09EFCF045025
:101000001109F594E7940C151D0541F78A2D880FF9
:101010008B2D881F8F3F49F020E030E0A901C501EA
:10102000B4010E944D08811106C082E290E09093C5
:10103000560180935501C501B40109C060E070E01C
:1010400080E89FEF04C060E070E080EC9FE7CDB7E0
:10105000DEB7ECE00C94820891110C9452088032B7
:1010600019F089508550C8F70895FB01DC01415003
:10107000504088F08D9181341CF08B350CF4805EEB
:10108000659161341CF06B350CF4605E861B611158
:1010900071F3990B0895881BFCCF0E94930508F407
:1010A00081E008959927882708950E949708A59FB1
:1010B000900DB49F900DA49F800D911D1124089553
:1010C0002F923F924F925F926F927F928F929F9258
:1010D000AF92BF92CF92DF92EF92FF920F931F9346
:1010E000CF93DF93CDB7DEB7CA1BDB0B0FB6F894F7
:1010F000DEBF0FBECDBF09942A88398848885F8437
:101100006E847D848C849B84AA84B984C884DF80A7
:10111000EE80FD800C811B81AA81B981CE0FD11D8B
:101120000FB6F894DEBF0FBECDBFED010895A29FAC
:10113000B001B39FC001A39F700D811D1124911DAB
:10114000B29F700D811D1124911D0895F894FFCF59
:1011500042656D2D56696E646F2100564D61782091
:101160003D20202020204B6D2F6800446967697462
:101170006520612056656C6F636964616465204D0C
:101180006178696D613A200056417475616C3A006E
:00000001FF
