S01D00004C696D697461646F72446556656C6F6369646164652E73726563C9
S11300000C9434000C9451000C9451000C94510045
S11300100C9451000C94C2000C9451000C945100A7
S11300200C9451000C9451000C9451000C94510008
S11300300C9451000C9451000C9451000C945100F8
S11300400C9451000C9451000C9451000C945100E8
S11300500C9451000C9451000C9451000C945100D8
S11300600C9451000C94510011241FBECFEFD8E022
S1130070DEBFCDBF11E0A0E0B1E0E2E1F4E002C0F8
S113008005900D92AA34B107D9F721E0AAE4B1E0B2
S113009001C01D92A535B207E1F70E9421010C941D
S11300A007020C9400009093C5008093C40088E17B
S11300B08093C1008EE08093C2000895E0ECF0E0EC
S11300C0908195FFFDCF8093C6000895E0ECF0E0A9
S11300D080818823ECF78091C6000895CF93DF9345
S11300E0EC018881882331F021960E945E00899179
S11300F08111FBCFDF91CF91089585B94098419844
S1130100429A83ED90E30197F1F700C00000429812
S1130110089588E390E00E947D008EE090E00E94C4
S11301207D0086E090E00E947D0081E090E00E94E6
S11301307D00089585B9409A4198429A83ED90E3F1
S11301400197F1F700C0000042980895CF93DF9320
S1130150EC018881882331F021960E949A008991CC
S11301608111FBCFDF91CF91089581E00E947D0042
S113017083EF91E00197F1F700C0000080E80E944E
S11301807D0008951F920F920FB60F9211242F93A2
S11301903F934F935F936F937F938F939F93AF930B
S11301A0BF93EF93FF934A9B1AC098B188E08927C5
S11301B088B920E030E040E85FE36091500170913D
S11301C0510180915201909153010E944A01609320
S11301D05001709351018093520190935301FF9108
S11301E0EF91BF91AF919F918F917F916F915F91AB
S11301F04F913F912F910F900FBE0F901F90189524
S113020084E0809368008CE080936D007894089576
S113021080E80E947D0080E091E00E94A60080ECCE
S11302200E947D008BE091E00E94A60087EC0E9472
S11302307D008BE191E00E946E008DE00E945E00E3
S113024008958FEF84B987B90E9400010E94890044
S11302508CE090E00E9453000E9408010E94660016
S113026080934F010E945E0080914F010E949A008A
S113027080914F01809354018D3081F70E94B50025
S113028088E391E00E94A60081E491E00E94A60028
S1130290E5CF5058BB27AA270E9461010C94CD01D9
S11302A00E94BF0138F00E94C60120F039F49F3F3C
S11302B019F426F40C94BC010EF4E095E7FB0C94BD
S11302C0B601E92F0E94DE0158F3BA1762077307DB
S11302D08407950720F079F4A6F50C9400020EF437
S11302E0E0950B2EBA2FA02D0B01B90190010C0142
S11302F0CA01A0011124FF27591B99F0593F50F45A
S1130300503E68F11A16F040A22F232F342F4427B1
S1130310585FF3CF469537952795A795F0405395A9
S1130320C9F77EF41F16BA0B620B730B840BBAF079
S11303309150A1F0FF0FBB1F661F771F881FC2F7E4
S11303400EC0BA0F621F731F841F48F487957795F8
S11303506795B795F7959E3F08F0B0CF9395880FB2
S113036008F09927EE0F97958795089597F99F6759
S113037080E870E060E008959FEF80EC0895002429
S11303800A941616170618060906089500240A94F6
S113039012161306140605060895092E0394000C7C
S11303A011F4882352F0BB0F40F4BF2B11F460FF0B
S11303B004C06F5F7F4F8F4F9F4F089557FD905834
S11303C0440F551F59F05F3F71F04795880F97FB15
S11303D0991F61F09F3F79F08795089512161306CF
S11303E01406551FF2CF4695F1DF08C016161706FE
S11303F01806991FF1CF8695710561050894089533
S1130400E894BB2766277727CB0197F90895F894DA
S1050410FFCF18
S113041242656D2D56696E646F2100564D617820D8
S11304223D20202020204B6D2F68004469676974A9
S11304326520612056656C6F636964616465204D53
S11304426178696D613A20005620417475616C3A95
S10D0452002030204B6D2F680000DD
S9030000FC
