:100000000C9434000C9451000C9451000C94510049
:100010000C9451000C94C2000C9451000C945100AB
:100020000C9451000C9451000C9451000C9451000C
:100030000C9451000C9451000C9451000C945100FC
:100040000C9451000C9451000C9451000C945100EC
:100050000C9451000C9451000C9451000C945100DC
:100060000C9451000C94510011241FBECFEFD8E026
:10007000DEBFCDBF11E0A0E0B1E0E2E4F2E002C0FB
:1000800005900D92AA34B107D9F721E0AAE4B1E0B6
:1000900001C01D92AC34B207E1F70E94F7000C9446
:1000A0001F010C9400009093C5008093C40088E168
:1000B0008093C1008EE08093C2000895E0ECF0E0F0
:1000C000908195FFFDCF8093C6000895E0ECF0E0AD
:1000D00080818823ECF78091C6000895CF93DF9349
:1000E000EC018881882331F021960E945E0089917D
:1000F0008111FBCFDF91CF91089585B94098419848
:10010000429A83ED90E30197F1F700C00000429816
:10011000089588E390E00E947D008EE090E00E94C8
:100120007D0086E090E00E947D0081E090E00E94EA
:100130007D00089585B9409A4198429A83ED90E3F5
:100140000197F1F700C0000042980895CF93DF9324
:10015000EC018881882331F021960E949A008991D0
:100160008111FBCFDF91CF91089581E00E947D0046
:1001700083EF91E00197F1F700C0000080E80E9452
:100180007D0008951F920F920FB60F9211248F9346
:100190009F934A9B04C098B188E0892788B99F91B2
:1001A0008F910F900FBE0F901F90189584E0809351
:1001B00068008CE080936D007894089580E80E9438
:1001C0007D0080E091E00E94A60080EC0E947D000E
:1001D0008BE091E00E94A60087EC0E947D008BE1FD
:1001E00091E00E946E008DE00E945E0008958FEF06
:1001F00084B987B90E94D6000E9489008CE090E003
:100200000E9453000E94DE000E94660080934A0113
:100210000E945E0080914A010E949A0080914A01EA
:1002200080934B018D3081F70E94B50088E391E007
:100230000E94A60081E491E00E94A600E5CFF89418
:02024000FFCFEE
:1002420042656D2D56696E646F2100564D617820AE
:100252003D20202020204B6D2F680044696769747F
:100262006520612056656C6F636964616465204D29
:100272006178696D613A20005620417475616C3A6B
:0A028200002030204B6D2F680000B3
:00000001FF
