S00B00004C43442E7372656346
S11300000C9434000C9449000C9449000C9449005D
S11300100C9449000C9449000C9449000C94490038
S11300200C9449000C9449000C9449000C94490028
S11300300C9449000C9449000C9449000C94490018
S11300400C9449000C9449000C9449000C94490008
S11300500C9449000C9449000C9449000C944900F8
S11300600C9449000C94490011241FBECFEFD8E032
S1130070DEBFCDBF11E0A0E0B1E0EEE9F1E002C0E7
S113008005900D92A431B107D9F70E94B6000C94E3
S1130090CD000C9400009BB19F70282F207F922BE1
S11300A09BB95898599A0000599832E43A95F1F757
S11300B000C02BB12F7030E1839FC0011124822B2B
S11300C08BB9599A0000599883EF91E00197F1F7A1
S11300D000C0000008958FEF8AB985EA9EE0019779
S11300E0F1F700C0000082E090E00E944B0088E23B
S11300F090E00E944B008CE090E00E944B0086E070
S113010090E00E944B0081E090E00E944B0083EF5E
S113011091E00197F1F700C000000895FC0190817F
S1130120992319F12BB12F70907F922B9BB9589A78
S1130130599A0000599882E48A95F1F700C04BB1AE
S1130140919180E1989F90011124942F9F70292B05
S11301502BB9599A0000599883EF91E00197F1F770
S113016000C0000090819111DDCF08950E946B00C2
S113017080E091E00E948E0080EC0E944B008AE0B7
S113018091E00E948E002FE38DE093E021508040A7
S11101909040E1F700C00000EFCFF894FFCFDD
S113019E5465737465204C43440032313A30363A18
S10701AE34390000DC
S9030000FC
