S0160000496E74657272757063616F4C45442E73726563AD
S11300000C9434000C943E000C943E000C943E007E
S11300100C943E000C9440000C943E000C943E0062
S11300200C943E000C943E000C943E000C943E0054
S11300300C943E000C943E000C943E000C943E0044
S11300400C943E000C943E000C943E000C943E0034
S11300500C943E000C943E000C943E000C943E0024
S11300600C943E000C943E0011241FBECFEFD8E048
S1130070DEBFCDBF0E944F000C945E000C940000C4
S11300801F920F920FB60F9211248F9385B180584F
S113009085B98F910F900FBE0F901F9018951AB8C5
S11300A08FEF84B9A8E6B0E0EDE6F0E08C918460CF
S11300B08C938081846080837894F8CFF894FFCF08
S9030000FC
