S018000052656C6F67696F436F6D4B65797061642E73726563BE
S11300000C9434000C9451000C9451000C94510045
S11300100C9451000C9451000C9451000C94510018
S11300200C9451000C9451000C9451000C94510008
S11300300C9451000C9451000C9451000C945100F8
S11300400C9451000C9451000C9451000C945100E8
S11300500C9451000C9451000C9451000C945100D8
S11300600C9451000C94510011241FBECFEFD8E022
S1130070DEBFCDBF11E0A0E0B1E0EAEDF6E002C0E2
S113008005900D92A631B107D9F721E0A6E1B1E0C0
S113009001C01D92AE31B207E1F70E9419020C941F
S11300A06B030C9400004598439A449885B9459A8B
S11300B045988FE39CE90197F1F700C0000008958B
S11300C0EF92FF920F931F93CF93DF938C017C01E8
S11300D0C0E0D0E006C0F70181917F010E94530087
S11300E02196F80101900020E9F73197E01BF10B0C
S11300F0CE17DF0780F3DF91CF911F910F91FF900F
S1130100EF90089545984398449885B9459A459841
S11301108FE39CE90197F1F700C00000089588E39C
S11301200E94820088E30E94820086E00E9482008E
S11301308EE00E94820081E00E9482000895CF93A5
S1130140DF938BEC0E948200C8E1D1E08D810E9494
S113015053008D818F5F8A3319F080931D0103C092
S113016089E380931D0180911801823309F04FC007
S113017080911901833309F04AC080911A018533B3
S113018009F0DAC080911B01893309F096C080918F
S11301901C01853309F091C080911D01893309F058
S11301A08CC08BEC0E948200C8E1D1E08D810E945A
S11301B0530080E38D838C838B838A838983888334
S11301C08AEC0E9482008C810E94530088EC0E9479
S11301D082008B810E94530087EC0E9482008A81F6
S11301E00E94530085EC0E94820089810E94530082
S11301F084EC0E94820088810E9453002FEF89EFD3
S113020090E0215080409040E1F700C000008091D0
S11302101901893309F04CC080911A01853309F022
S11302208BC080911B01893309F0BEC080911C01F1
S1130230853309F047C080911D01893309F042C01C
S11302408BEC0E948200C8E1D1E08D810E945300B2
S113025080E38D838C838B838A8389838AEC0E94D9
S113026082008C810E94530088818F5F888388EC90
S11302700E9482008B810E94530087EC0E948200BE
S11302808A810E94530085EC0E94820089810E9429
S1130290530084EC0E94820088810E9453002FEF57
S11302A089EF90E0215080409040E1F700C00000C9
S11302B080911A01853309F03FC080911B01893375
S11302C009F072C080911C01853309F098C08091B7
S11302D01D018933D1F58BEC0E948200C8E1D1E085
S11302E08D810E94530080E38D838C838B838A836A
S11302F08AEC0E9482008C810E94530089818F5F66
S1130300898388EC0E9482008B810E94530087ECD1
S11303100E9482008A810E94530085EC0E94820020
S113032089810E9453002FEF89EF90E02150804093
S11303309040E1F700C0000080911B018933A1F5D2
S113034080911C01853309F05AC080911D018933C5
S113035009F06CC08BEC0E948200C8E1D1E08D8171
S11303600E94530080E38D838C838B838AEC0E94EC
S113037082008C810E9453008A818F5F8A8388EC7B
S11303800E9482008B810E94530087EC0E948200AD
S11303908A810E9453002FEF89EF90E02150804022
S11303A09040E1F700C0000080911C01853339F5CD
S11303B080911D018933D1F58BEC0E948200C8E144
S11303C0D1E08D810E94530080E38D838C838AEC7D
S11303D00E9482008C810E9453008B818F5F8B83EB
S11303E088EC0E9482008B810E9453002FEF89EFDA
S11303F090E0215080409040E1F700C000008091DF
S11304001D01893399F48BEC0E948200C8E1D1E08C
S11304108D810E94530080E38D838C818F5F8C8358
S11304208AEC0E9482008C810E945300DF91CF915C
S113043008958FEF84B98FE08AB98FE787B90E9456
S11304408F0082E80E94820080E091E00E946000B8
S113045084EC0E9482005B9A4F9B10C084EC0E9443
S113046082008DE091E00E94600084EC0E94820092
S11304708FE19EE40197F1F700C000004D9B10C08E
S11304808FE19EE40197F1F700C000000E949F00F5
S11304904D9BFCCF8FE19EE40197F1F700C0000073
S11304A04C9B09C08AE30E9453008FE19EE40197AC
S11304B0F1F700C000005B985A9A4F9B17C081E384
S11304C00E9453008091160190911701FC01E85E8F
S11304D0FE4F21E320830196909317018093160128
S11304E08FE19EE40197F1F700C000005A98599AF1
S11304F04F9B17C084E30E94530080911601909192
S11305001701FC01E85EFE4F24E3208301969093DB
S11305101701809316018FE19EE40197F1F700C063
S113052000005998589A4F9B17C087E30E945300C4
S11305308091160190911701FC01E85EFE4F27E3BC
S11305402083019690931701809316018FE19EE416
S11305500197F1F700C0000058985B9A4E9B17C0B2
S113056080E30E9453008091160190911701FC01D1
S1130570E85EFE4F20E32083019690931701809359
S113058016018FE19EE40197F1F700C000005B982B
S11305905A9A4E9B17C082E30E9453008091160121
S11305A090911701FC01E85EFE4F22E3208301963F
S11305B090931701809316018FE19EE40197F1F760
S11305C000C000005A98599A4E9B17C085E30E94B8
S11305D053008091160190911701FC01E85EFE4FD3
S11305E025E32083019690931701809316018FE1F0
S11305F09EE40197F1F700C000005998589A4E9B69
S113060017C088E30E94530080911601909117014E
S1130610FC01E85EFE4F28E32083019690931701C6
S1130620809316018FE19EE40197F1F700C000006A
S113063058985A9A4D9B17C083E30E9453008091A7
S1130640160190911701FC01E85EFE4F23E320831D
S1130650019690931701809316018FE19EE4019710
S1130660F1F700C000005A98599A4D9B17C086E3D1
S11306700E9453008091160190911701FC01E85EDD
S1130680FE4F26E320830196909317018093160171
S11306908FE19EE40197F1F700C000005998589A41
S11306A04D9B17C089E30E945300809116019091DD
S11306B01701FC01E85EFE4F29E320830196909325
S11306C01701809316018FE19EE40197F1F700C0B2
S10D06D000005898C0CEF894FFCF44
S11306DA546573746520646F204C63640030303A47
S10906EA30303A3030000C
S9030000FC
