S0170000496E7465726661636553657269616C2E737265631C
S11300000C9434000C9451000C9451000C94510045
S11300100C9451000C94B5000C9451000C945100B4
S11300200C9451000C9451000C9451000C94510008
S11300300C9451000C9451000C9451000C945100F8
S11300400C9451000C9451000C9451000C945100E8
S11300500C9451000C9451000C9451000C945100D8
S11300600C9451000C94510011241FBECFEFD8E022
S1130070DEBFCDBF11E0A0E0B1E0E0E6F2E002C0F7
S113008005900D92A032B107D9F721E0A0E2B1E0CA
S113009001C01D92A132B207E1F70E9401010C9444
S11300A02E010C9400009093C5008093C40088E155
S11300B08093C1008EE08093C2000895E0ECF0E0EC
S11300C0908195FFFDCF8093C6000895E0ECF0E0A9
S11300D080818823ECF78091C6000895CF93DF9345
S11300E0EC018881882331F021960E945E00899179
S11300F08111FBCFDF91CF91089585B94098419844
S1130100429A83ED90E30197F1F700C00000429812
S1130110089588E390E00E947D008EE090E00E94C4
S11301207D0086E090E00E947D0081E090E00E94E6
S11301307D00089585B9409A4198429A83ED90E3F1
S11301400197F1F700C0000042980895CF93DF9320
S1130150EC018881882331F021960E949A008991CC
S11301608111FBCFDF91CF9108951F920F920FB6AB
S11301700F9211242F933F934F935F936F937F9329
S11301808F939F93AF93BF93EF93FF934A990FC0BD
S113019081E4809320010E949A008DE00E945E0019
S11301A0809120010E945E0080EC0E947D004B99AA
S11301B00FC082E4809320010E949A008DE00E9487
S11301C05E00809120010E945E0080EC0E947D0010
S11301D0FF91EF91BF91AF919F918F917F916F911B
S11301E05F914F913F912F910F900FBE0F901F90F1
S11301F0189584E0809368008CE080936D00789477
S113020008958FEF84B987E087B90E9489008CE054
S113021090E00E94530080E80E947D0080E091E01D
S11302200E94A60081E191E00E946E008DE00E9490
S11302305E000E94F9000E9466008093200180EC19
S11302400E947D00809120010E949A008DE00E940E
S11302505E00809120010E945E00EDCFF894FFCFF4
S1130260496E746572666163652053657269616C79
S11302700055534152542070617261204C43440034
S9030000FC
