S0170000496E7465726661636553657269616C2E737265631C
S11300000C9434000C9451000C9451000C94510045
S11300100C9451000C9451000C9451000C94510018
S11300200C9451000C9451000C9451000C94510008
S11300300C9451000C9451000C9451000C945100F8
S11300400C9451000C9451000C9451000C945100E8
S11300500C9451000C9451000C9451000C945100D8
S11300600C9451000C94510011241FBECFEFD8E022
S1130070DEBFCDBF11E0A0E0B1E0ECECF1E002C0E6
S113008005900D92A032B107D9F721E0A0E2B1E0CA
S113009001C01D92A332B207E1F70E94B5000C948F
S11300A0E4000C9400009093C5008093C40088E1A0
S11300B08093C1008EE08093C2000895E0ECF0E0EC
S11300C0908195FFFDCF8093C6000895E0ECF0E0A9
S11300D080818823ECF78091C6000895CF93DF9345
S11300E0EC018881882331F021960E945E00899179
S11300F08111FBCFDF91CF91089585B94098419844
S1130100429A83ED90E30197F1F700C00000429812
S1130110089588E390E00E947D008EE090E00E94C4
S11301207D0086E090E00E947D0081E090E00E94E6
S11301307D00089585B9409A4198429A83ED90E3F1
S11301400197F1F700C0000042980895CF93DF9320
S1130150EC018881882331F021960E949A008991CC
S11301608111FBCFDF91CF9108958FEF84B987E0A0
S113017087B90E9489008FEC90E00E94530080E8C8
S11301800E947D0080E091E00E94A60081E191E060
S11301900E946E008DE00E945E00D1E4C2E40E94E1
S11301A06600809322014A9BD09322014B9BC0930B
S11301B022018DE00E945E0080EC0E947D0080910F
S10F01C022010E949A00EBCFF894FFCFBC
S11301CC496E746572666163652053657269616C0E
S11301DC0055534152542070617261204C434400C9
S9030000FC
