:100000000C9434000C9446000C9446000C9446006A
:100010000C9446000C94B0000C9446000C944600DE
:100020000C9446000C9446000C9446000C94460038
:100030000C9446000C9446000C9446000C94460028
:100040000C9446000C9446000C9486000C944600D8
:100050000C9446000C9446000C9446000C94460008
:100060000C9446000C94460011241FBECFEFD8E03C
:10007000DEBFCDBF21E0A0E0B1E001C01D92A13004
:10008000B207E1F70E94DC000C94F4000C9400002D
:100090009093C5008093C400E0ECF0E08081826022
:1000A0008083E1ECF0E080818861808380818068DA
:1000B00080838CE28093C200089585B9409841986E
:1000C000429A83ED90E30197F1F700C00000429857
:1000D000089588E390E00E945D008EE090E00E9429
:1000E0005D0086E090E00E945D0081E090E00E946B
:1000F0005D00089585B9409A4198429A83ED90E356
:100100000197F1F700C00000429808951F920F92E6
:100110000FB60F9211242F933F934F935F936F93DA
:100120007F938F939F93AF93BF93EF93FF938091B0
:10013000C60080930001809100010E947A00FF9127
:10014000EF91BF91AF919F918F917F916F915F914F
:100150004F913F912F910F900FBE0F901F901895C8
:100160001F920F920FB60F9211242F933F934F932C
:100170005F936F937F938F939F93AF93BF93EF930F
:10018000FF934A9903C081E40E947A004B9903C00F
:1001900082E40E947A00FF91EF91BF91AF919F910D
:1001A0008F917F916F915F914F913F912F910F9020
:1001B0000FBE0F901F9018951AB88CE08BB98FEF77
:1001C00084B997E097B985B981E290E00E94480030
:1001D000E9E6F0E08081826080838DB383608DBB2F
:0C01E00078940E946900FFCFF894FFCFD4
:00000001FF
